:100000000C9444000C9461000C9461000C94610009
:100010000C9461000C9461000C9461000C946100DC
:100020000C9461000C9461000C9461000C946100CC
:100030000C9461000C9481020C9461000C9461009A
:100040000C9461000C9461000C9461000C946100AC
:100050000C9461000C9461000C9461000C9461009C
:100060000C9461000C946100DA02EE0200031403A8
:1000700026033A034C036003720386039803AC0320
:10008000BE03D203AD02C10211241FBECFEFD8E0E0
:10009000DEBFCDBF17E0A0E0B1E0E0EDF6E102C0C9
:1000A00005900D92A233B107D9F727E0A2E3B7E09C
:1000B00001C01D92A434B207E1F70E946A070C94B4
:1000C000660B0C940000613089F0409898E005C000
:1000D0004298439A880F915041F0439887FFF8CF98
:1000E000429A439A880F9150C1F70895409AEECFF3
:1000F000CF93DF93D0EB60E08D2F0E94630060E030
:1001000080E00E94630060E080E10E946300C0E044
:1001100061E080E00E946300CF5FC038C9F7DF5F15
:10012000D83B49F7DF91CF9108954198419A60E01B
:100130008EEA0E94630060E085ED0E94630060E04B
:1001400080E80E94630060E088EA0E94630060E04B
:100150008FE30E94630060E083ED0E94630060E033
:1001600080E00E94630060E080E40E94630060E041
:100170008DE80E94630060E084E10E94630060E01B
:1001800080E20E94630060E080E10E94630060E022
:1001900081EA0E94630060E088EC0E94630060E0F6
:1001A0008AED0E94630060E082E10E94630060E0EB
:1001B00081E80E94630060E08FE80E94630060E0D5
:1001C00089ED0E94630060E081EF0E94630060E0BF
:1001D0008BED0E94630060E080E30E94630060E0BA
:1001E00084EA0E94630060E086EA0E94630060E0A7
:1001F0008FEA0E9463000C947800CF92DF92EF9216
:10020000FF920F931F93CF93DF9390E1899FE001BB
:100210001124CE5DDD4F842F8F70C82EE42EE29422
:100220008FE0E82290E1E90E92EBD92ED60E20EB7A
:10023000F22EF60E60E08F2D0E94630060E08C2DA0
:100240000E94630060E08E2D0E9463008E01085FB3
:100250001F4F61E089910E9463000C171D07C9F7C9
:10026000E801F394FD10E6CFDF91CF911F910F913C
:10027000FF90EF90DF90CF9008958F929F92AF9272
:10028000BF92CF92DF92EF92FF920F931F93CF9383
:10029000DF935C01962E842EC22F9C01329522950D
:1002A0002F7023273F702327A7E4B3E00E94570B4A
:1002B000FC01F695E795F695E795F695E79520E12B
:1002C00037E2E29FC001E39F900DF29F900D112451
:1002D000A81AB90A9501369527953695279536952A
:1002E0002795A5ECB0E20E94570B6C01D294C29402
:1002F000AFE0CA22CD24DA22CD2428EE33E0C29E1C
:10030000C001C39E900DD29E900D1124A81AB90A67
:1003100095013695279536952795ABE7B4E10E9470
:10032000570B7C01F694E79424E62E9DC0012F9D87
:10033000900D1124A81AB90A9501ADECBCEC0E94ED
:10034000570B8C01169507951695079516950795E9
:10035000692D8E2F0E94FD0046E04C0F480D692D3F
:100360008C2D0E94FD00D0E02696DC2FDD0FD80DED
:100370004D2F692D8E2D0E94FD00DC0F4D2F692D14
:10038000802F0E94FD004C2F4D0FF801EE0FFF1F34
:10039000000F111F000F111F000F111FE00FF11FA1
:1003A000AE1ABF0A9501ADECBCEC0E94570B9695B6
:1003B00087959695879596958795692D2A2D3AE08C
:1003C000839F20191124822FDF91CF911F910F91CC
:1003D000FF90EF90DF90CF90BF90AF909F908F9065
:1003E0000C94FD008F929F92AF92BF92CF92DF92BA
:1003F000EF92FF920F931F93CF93DF93B82EFA01E2
:10040000C081CC23D9F170EB872E860E7A01FFEFE5
:10041000EF1AFF0AE2EB9E2E960EC05280E1C89FB3
:10042000E0011124CE5DDE4FEB2DEF70AE2ECB2C14
:10043000C2945FE0C522F0E1CF0ED82C60E08D2D94
:100440000E94630060E08A2D0E94630060E08C2DB2
:100450000E9463008E01085F1F4F61E089910E9436
:100460006300C017D107C9F7D394D910E7CF88E04C
:10047000B80EF701C1917F01C111CFCFDF91CF91AC
:100480001F910F91FF90EF90DF90CF90BF90AF90B2
:100490009F908F90089590917C008F70907F890F2E
:1004A00080937C0044E080E090E020917A0020641A
:1004B00020937A0020917A0024FFFCCF20917A00CB
:1004C0002F7E20937A002091780030917900820F5E
:1004D000931F415051F79695879596958795089566
:1004E000109281005C985D985E985F982898299892
:1004F0002A982B9882E190E090933F0780933E07E3
:1005000008951F920F920FB60F9211242F933F93CD
:100510008F939F93EF93FF9380913E0790913F07B6
:1005200080319105A8F08FEF9FEF90938500809325
:10053000840010923F0710923E07FF91EF919F9128
:100540008F913F912F910F900FBE0F901F90189594
:10055000FC01EC5CFF4F0C94510B2B9A87E19CEF54
:100560002091200130912101821B930B90938500F3
:10057000809384008FE090E090933F0780933E0744
:10058000DCCF2B988091200190912101815A9F40CE
:10059000909385008093840010923F0710923E074D
:1005A00080913C0790913D07019690933D07809381
:1005B0003C07C3CF5C9A87E19CEF209112013091F8
:1005C0001301821B930B909385008093840081E03C
:1005D00090E090933F0780933E07AFCF5C98809167
:1005E000120190911301815A9F409093850080934E
:1005F000840082E090E090933F0780933E079DCF78
:100600005D9A87E19CEF2091140130911501821BC6
:10061000930B909385008093840083E090E0909307
:100620003F0780933E0789CF5D9880911401909198
:100630001501815A9F40909385008093840084E047
:1006400090E090933F0780933E0777CF5E9A87E1D3
:100650009CEF2091160130911701821B930B909310
:1006600085008093840085E090E090933F0780931D
:100670003E0763CF5E988091160190911701815AD1
:100680009F40909385008093840086E090E0909353
:100690003F0780933E0751CF5F9A87E19CEF2091FF
:1006A000180130911901821B930B90938500809360
:1006B000840087E090E090933F0780933E073DCF12
:1006C0005F988091180190911901815A9F409093F1
:1006D00085008093840088E090E090933F078093AA
:1006E0003E072BCF289A87E19CEF20911A01309189
:1006F0001B01821B930B909385008093840089E0FB
:1007000090E090933F0780933E0717CF2898809101
:100710001A0190911B01815A9F409093850080930C
:1007200084008AE090E090933F0780933E0705CFD6
:10073000299A87E19CEF20911C0130911D01821BB9
:10074000930B90938500809384008BE090E09093CE
:100750003F0780933E07F1CE299880911C0190912C
:100760001D01815A9F4090938500809384008CE006
:1007700090E090933F0780933E07DFCE2A9A87E16F
:100780009CEF20911E0130911F01821B930B9093CF
:100790008500809384008DE090E090933F078093E4
:1007A0003E07CBCE2A9880911E0190911F01815A5D
:1007B0009F4090938500809384008EE090E090931A
:1007C0003F0780933E07B9CE382F292F8C394FEF42
:1007D000940714F43CE92FEFE32FF22FE536F105EF
:1007E00014F0E4E6F0E02091000130910101A091C5
:1007F0000201B0910301EA9FA001EB9F500DFA9F07
:10080000500D11244053584F420F531F5093130162
:1008100040931201AB014C396FEF560714F44CE9C9
:100820005FEF4536510514F044E650E0A091040115
:10083000B09105014A9FB0014B9F700D5A9F700DFA
:1008400011246053784F620F731F709315016093EA
:1008500014019195819591098C396FEF960714F4E5
:100860008CE99FEF8536910514F084E690E0A09125
:100870000601B09107018A9FB0018B9F700D9A9F6E
:10088000700D11246053784F620F731F709317011E
:1008900060931601A0910801B09109014A9FB0012F
:1008A0004B9F700D5A9F700D11246053784F620F4B
:1008B000731F7093190160931801A0910A01B09100
:1008C0000B01EA9FB001EB9F700DFA9F700D112490
:1008D0006053784F620F731F70931B0160931A016E
:1008E000E0910C01F0910D014E9FB0014F9F700DF2
:1008F0005E9F700D11246053784F620F731F7093C9
:100900001D0160931C01E0910E01F0910F018E9F7B
:10091000B0018F9F700D9E9F700D1124CB018053ED
:10092000984F820F931F90931F0180931E01609137
:10093000100170911101469FC001479F900D569F75
:10094000900D11248053984F820F931F9093210193
:10095000809320010895CF93C82F809136078C177C
:1009600051F010923D0710923C0766EA7FEF80E05D
:1009700090E00E94E403C0933607CF9108958F92D0
:100980009F92AF92BF92CF92DF92EF92FF920F931E
:100990001F93CF93DF93EC016B015A01490197013B
:1009A000ADECBCEC0E94570BFC01F295E295EF70A8
:1009B000EF27FF70EF27BF01660F771F6E0F7F1FB6
:1009C000660F771F80913C0790913D070E943D0B79
:1009D000BF010E943D0BFB01709335076093340704
:1009E00080913207909133076817790709F44AC05C
:1009F0006230710509F4C8C108F451C06430710552
:100A000009F48FC108F4A6C06530710509F084C1EE
:100A100085E6881691040CF01FC294014CE98416F7
:100A20004FEF94060CF453C2409100015091010124
:100A30006091080170910901269FC001279F900DC8
:100A4000369F900D11248053984F840F951F9093DB
:100A50001901809318016091100170911101269F76
:100A6000C001279F900D369F900D11248053984F01
:100A7000840F951F9093210180932001F0933307F9
:100A8000E0933207DF91CF911F910F91FF90EF908C
:100A9000DF90CF90BF90AF909F908F900895309748
:100AA00009F4BCC06130710509F036C18827992767
:100AB0008C199D098A199B098C1B9D0B8C392FEF72
:100AC000920714F48CE99FEF20910001309101010D
:100AD0008536910514F084E690E0609102017091F2
:100AE0000301869FA001879F500D969F500D1124F2
:100AF000CA018053984F820F931F909313018093E4
:100B00001201C6018A199B098C0F9D1F8C394FEF6A
:100B1000940714F48CE99FEFBC018536910514F01D
:100B200064E670E040910A0150910B01649FC0019E
:100B3000659F900D749F900D11248053984F820FE4
:100B4000931F90931B0180931A01F0933307E09356
:100B5000320798CF080D191D053611050CF095C107
:100B60000C398FEF18070CF4AFC1209100013091C0
:100B700001014091080150910901049FC001059FA6
:100B8000900D149F900D11248053984F820F931F46
:100B90009093190180931801409110015091110117
:100BA000049FC001059F900D149F900D1124805348
:100BB000984F820F931F9093210180932001C601CB
:100BC0008A0D9B1D8C0F9D1F8C394FEF940714F4D9
:100BD0008CE99FEF8536910514F084E690E06091F2
:100BE000020170910301869FA001879F500D969F7F
:100BF000500D1124CA018053984F820F931F909378
:100C0000130180931201C5018C199D098C1B9D0B4A
:100C10008C394FEF94070CF07FCF7CCF080D191D56
:100C2000053611050CF0FFC00C392FEF12070CF43C
:100C300048C120910001309101014091040150917F
:100C40000501049FC001059F900D149F900D112474
:100C50008053984F820F931F909315018093140136
:100C600040910C0150910D01049FC001059F900D12
:100C7000149F900D11248053984F820F931F9093CF
:100C80001D0180931C01C6018A0D9B1D8C1B9D0BB1
:100C90008C394FEF940714F48CE99FEF853691055A
:100CA00014F084E690E06091060170910701869F40
:100CB000A001879F500D969F500D1124CA018053AB
:100CC000984F820F931F9093170180931601C501CF
:100CD0008C199D098C0F9D1F8C394FEF940714F4CC
:100CE0008CE99FEFBC018536910514F064E670E055
:100CF00040910E0150910F01649FC001659F900DBE
:100D0000749F900D11248053984F820F931F9093DE
:100D10001F0180931E0119CF10923D0710923C07CE
:100D200014CFCE018A199B098C199D098C392FEF9C
:100D3000920714F48CE99FEF20910001309101019A
:100D40008536910514F084E690E06091060170917B
:100D50000701869FA001879F500D969F500D11247B
:100D6000CA018053984F820F931F9093170180936D
:100D70001601C6018A199B098C1B9D0B8C394FEFFC
:100D800094070CF0AFCFACCF85E68816910494F5AC
:100D900094014CE984164FEF94060CF48FC04091F7
:100DA0000001509101016091040170910501269F9D
:100DB000C001279F900D369F900D11248053984FAE
:100DC000840F951F909315018093140160910C017D
:100DD00070910D01269FC001279F900D369F900DA9
:100DE00011248053984F840F951F90931D01809379
:100DF0001C01ABCE409100015091010120910401F2
:100E00003091050164E6629FC001639F900D11243B
:100E10008053984F840F951F909315018093140170
:100E200024E630E0D3CF20910001309101014091C0
:100E300004015091050164E6649FC001659F900D17
:100E400011248053984F820F931F90931501809324
:100E5000140104E610E004CF40910001509101011B
:100E6000209108013091090164E6629FC001639FEF
:100E7000900D11248053984F840F951F9093190162
:100E80008093180124E630E0E6CD209100013091F6
:100E90000101409108015091090164E6649FC0017D
:100EA000659F900D11248053984F820F931F90934C
:100EB00019018093180104E610E06ECE2CE93FEF93
:100EC0006ECF0CE91FEFB5CE0CE91FEF4ECE2CE92B
:100ED0003FEFAACD8FEF84B985B987B988B98EEF76
:100EE0008AB980EF8BB90E94950020E82FBF10923D
:100EF000800082E0809381001092820081E08093E4
:100F00006F008CED9BE0909385008093840010929D
:100F10007A0086E480937C0020BF83E880937A0087
:100F20001092C50088E08093C40088E18093C100DE
:100F300086E08093C2008FE39CE90197F1F700C03F
:100F40000000DD24D39432E0C32E8091C00087FDE1
:100F5000ACC086E00E944B02BC0180E090E00E94A1
:100F6000240A2DEC3CEC4CEC52E40E949009609376
:100F70004007709341078093420790934307809105
:100F800039078130D9F41092390790913A0790933C
:100F90003807809137078F5F80933707EFE9FFE0CD
:100FA0003197F1F700C000008091C00085FFFCCFB1
:100FB0009093C6008091C00086FFFCCF80913A07D5
:100FC0000E94AB04C0913A07D0913B07209709F4E7
:100FD00011C1E0904007F090410700914207109145
:100FE000430720E030E040EE50E4B701C8010E9422
:100FF0008C0987FDFFC020E030E040E051E4B701FC
:10100000C8010E94D60A18160CF059C042E257E0F7
:1010100062E084E20E94F201C0913A07D0913B075E
:10102000C130D10509F427C1C230D10509F43BC153
:10103000C330D10509F44EC1C430D10509F453C001
:10104000C530D10509F466C0C630D10509F479C0B0
:10105000C730D10509F48CC0C830D10509F49FC050
:10106000C930D10509F4B2C021E040E066E0CE010C
:101070000E943D0120E030E048EC52E460914007DE
:101080007091410780914207909143070E94DA0ACC
:101090000E94F809DC01CB0121E048E566E00E94EE
:1010A0003D018091C00087FF54CF8091C60090E041
:1010B00090933B0780933A07D09239074ACF20E0BC
:1010C00030E040EE50E4B701C8010E94D60A18167D
:1010D0000CF0A6CFCD2B09F014C1C0E0D0E0C43095
:1010E000D10509F0ADCF84E6E82EF12C0AE510E039
:1010F00026EA3FEF40E050E068E270E080E090E0F8
:101100000E94BF04C0913A07D0913B07C530D1057A
:1011100009F09ACF04E6E02EF12C0AE510E026EA69
:101120003FEF40E050E068ED7FEF80E090E00E940C
:10113000BF04C0913A07D0913B07C630D10509F0F2
:1011400087CF14E6E12EF12C0AE510E026EA3FEF06
:1011500040E050E060E070E080E090E00E94BF047A
:10116000C0913A07D0913B07C730D10509F074CF41
:10117000D4E6ED2EF12C0AE510E026EA3FEF40E040
:1011800050E060E070E088E290E00E94BF04C0910F
:101190003A07D0913B07C830D10509F061CFC4E6CA
:1011A000EC2EF12C0AE510E026EA3FEF40E050E09B
:1011B00060E070E088E290E00E94BF04C0913A07CE
:1011C000D0913B07C930D10509F04ECFB4E6EB2EE4
:1011D000F12C0AE510E026EA3FEF40E050E064E140
:1011E00070E084E190E00E94BF04C0913A07D09182
:1011F0003B073ACF0E94700220E030E040EE50E41E
:101200006091400770914107809142079091430798
:101210000E948C0987FF72C042E157E062E084E2DD
:101220000E94F201E0904007F090410700914207D0
:1012300010914307C0913A07D0913B0720E030E07E
:1012400040E051E4B701C8010E94D60A18160CF01C
:1012500036CF209709F0DACE20E030E040EE50E4BF
:10126000B701C8010E94D60A18160CF436CFC13057
:10127000D10509F0D9CE80918100823031F01092F1
:101280003F0710923E07C092810066EA7FEF80E040
:1012900090E00E94E403C0913A07D0913B07C2302E
:1012A000D10509F0C5CE24E6E22EF12C0AE510E0C6
:1012B00026EA3FEF48E250E060E070E080E090E036
:1012C0000E94BF04C0913A07D0913B07C330D105BB
:1012D00009F0B2CE94E6E92EF12C0AE510E026EAF8
:1012E0003FEF48ED5FEF60E070E080E090E00E944B
:1012F000BF04C0913A07D0913B079ECE4AE157E028
:101300008DCF4AE257E062E084E20E94F201C09190
:101310003A07D0913B0784CED4D008F481E00895F9
:101320000CD00AC102D140F0F9D030F021F45F3F77
:1013300019F0EBC0511134C1EEC00FD198F39923CD
:10134000C9F35523B1F3951B550BBB27AA27621789
:101350007307840738F09F5F5F4F220F331F441FCE
:10136000AA1FA9F333D00E2E3AF0E0E830D0915006
:101370005040E695001CCAF729D0FE2F27D0660FF3
:10138000771F881FBB1F261737074807AB07B0E832
:1013900009F0BB0B802DBF01FF2793585F4F2AF048
:1013A0009E3F510568F0B1C0FBC05F3FECF3983E33
:1013B000DCF3869577956795B795F7959F5FC9F7A5
:1013C000880F911D9695879597F90895E1E0660F2E
:1013D000771F881FBB1F621773078407BA0720F0A7
:1013E000621B730B840BBA0BEE1F88F7E095089510
:1013F000BCD088F09F5790F0B92F9927B751A0F033
:10140000D1F0660F771F881F991F1AF0BA95C9F798
:1014100012C0B13081F0C3D0B1E00895C0C0672FD1
:10142000782F8827B85F39F0B93FCCF38695779548
:101430006795B395D9F73EF4909580957095619531
:101440007F4F8F4F9F4F0895E89409C097FB3EF45C
:1014500090958095709561957F4F8F4F9F4F992301
:10146000A9F0F92F96E9BB279395F695879577957F
:101470006795B795F111F8CFFAF4BB0F11F460FF3F
:101480001BC06F5F7F4F8F4F9F4F16C0882311F097
:1014900096E911C0772321F09EE8872F762F05C0AB
:1014A000662371F096E8862F70E060E02AF09A9546
:1014B000660F771F881FDAF7880F9695879597F93B
:1014C0000895990F0008550FAA0BE0E8FEEF1616D5
:1014D0001706E807F907C0F012161306E407F50728
:1014E00098F0621B730B840B950B39F40A2661F09C
:1014F000232B242B252B21F408950A2609F4A1403F
:10150000A6958FEF811D811D089597F99F6780E84B
:1015100070E060E008959FEF80EC089500240A9445
:101520001616170618060906089500240A941216BE
:101530001306140605060895092E0394000C11F4F1
:10154000882352F0BB0F40F4BF2B11F460FF04C09E
:101550006F5F7F4F8F4F9F4F089557FD9058440FF7
:10156000551F59F05F3F71F04795880F97FB991F02
:1015700061F09F3F79F087950895121613061406BF
:10158000551FF2CF4695F1DF08C01616170618064C
:10159000991FF1CF86957105610508940895E89427
:1015A000BB2766277727CB0197F908958ADF08F4D0
:1015B0008FEF08950BD0C0CFB1DF28F0B6DF18F061
:1015C000952309F0A2CFA7CF1124EACFC6DFA0F35D
:1015D000959FD1F3950F50E0551F629FF001729FC8
:1015E000BB27F00DB11D639FAA27F00DB11DAA1FE7
:1015F000649F6627B00DA11D661F829F2227B00D34
:10160000A11D621F739FB00DA11D621F839FA00DBE
:10161000611D221F749F3327A00D611D231F849F0E
:10162000600D211D822F762F6A2F11249F57504065
:101630008AF0E1F088234AF0EE0FFF1FBB1F661F00
:10164000771F881F91505040A9F79E3F510570F0B9
:101650005CCFA6CF5F3FECF3983EDCF386957795A1
:101660006795B795F795E7959F5FC1F7FE2B880FB4
:10167000911D9695879597F90895AA1BBB1B51E17B
:1016800007C0AA1FBB1FA617B70710F0A61BB70BF2
:10169000881F991F5A95A9F780959095BC01CD0197
:1016A0000895EE0FFF1F0590F491E02D0994A29F7D
:1016B000B001B39FC001A39F700D811D1124911D26
:1016C000B29F700D811D1124911D0895F894FFCFD4
:1016D000A0000A000A000A00F6FF0A000A000A0039
:1016E000F6FF2A080A052A084A0B2A080A052A08CA
:1016F0004A0B000000000000000000000000000095
:101700000000000000F8000000000000003330007E
:10171000000000100C06100C060000000000000085
:10172000000040C07840C0784000043F04043F04FB
:101730000400007088FC08300000001820FF211E03
:101740000000F008F000E018000000211C031E213A
:101750001E0000F00888700000001E2123241927B5
:10176000211010160E000000000000000000000014
:101770000000000000E0180402000000000718202C
:10178000400000020418E00000000040201807009C
:101790000000404080F0804040000202010F010242
:1017A0000200000000F0000000000101011F010123
:1017B0000100000000000000000080B07000000088
:1017C0000000000000000000000000010101010114
:1017D00001010000000000000000003030000000A7
:1017E000000000000000806018040060180601007E
:1017F000000000E010080810E000000F102020108A
:101800000F00001010F8000000000020203F2020F2
:101810000000007008080888700000302824222189
:10182000300000300888884830000018202020113F
:101830000E000000C02010F8000000070424243F20
:10184000240000F8088888080800001921202011C9
:101850000E0000E0108888180000000F11202011F1
:101860000E0000380808C83808000000003F0000DB
:1018700000000070880808887000001C22212122C6
:101880001C0000E010080810E000000031222211C6
:101890000F00000000C0C000000000000030300059
:1018A00000000000008000000000000080600000D8
:1018B0000000000080402010080000010204081011
:1018C0002000404040404040400004040404040420
:1018D00004000008102040800000002010080402CE
:1018E0000100007048080808F000000000303601D0
:1018F0000000C030C828E810E0000718272423148F
:101900000B000000C038E0000000203C230202274A
:10191000382008F8888888700000203F2020201197
:101920000E00C030080808083800071820202010D2
:10193000080008F808080810E000203F20202010C8
:101940000F0008F88888E8081000203F2020232096
:10195000180008F88888E8081000203F20000300DD
:101960000000C03008080838000007182020221E98
:10197000020008F808000008F808203F21010121B2
:101980003F20000808F8080800000020203F202021
:10199000000000000808F8080800C08080807F0070
:1019A000000008F888C028180800203F20012638C9
:1019B000200008F8080000000000203F2020202020
:1019C000300008F8F800F8F80800203F003F003F1A
:1019D000200008F830C00008F808203F2000071851
:1019E0003F00E01008080810E0000F102020201031
:1019F0000F0008F808080808F000203F2101010145
:101A00000000E01008080810E0000F1824243850E7
:101A10004F0008F8888888887000203F2000030C59
:101A20003020007088080808380000382021212262
:101A30001C00180808F8080818000000203F2000C3
:101A4000000008F808000008F808001F20202020E7
:101A50001F000878880000C83808000007380E0109
:101A60000000F80800F80008F800033C0700073CF5
:101A70000300081868808068180820302C03032CA5
:101A800030200838C800C83808000000203F200077
:101A9000000010080808C838080020382621202037
:101AA0001800000000FE020202000000007F40401B
:101AB0004000000C30C000000000000000010638AB
:101AC000C00000020202FE000000004040407F0013
:101AD00000000000040202020400000000000000F8
:101AE00000000000000000000000808080808080F6
:101AF00080800002020400000000000000000000DE
:101B00000000000080808080000000192422222232
:101B10003F2008F8008080000000003F11202011C5
:101B20000E000000008080800000000E11202020A8
:101B30001100000000808088F800000E11202010A5
:101B40003F200000808080800000001F222222228F
:101B50001300008080F0888888180020203F202013
:101B600000000000808080808000006B949494933B
:101B7000600008F8008080800000203F21000020E5
:101B80003F2000809898000000000020203F202087
:101B90000000000000809898000000C08080807FD6
:101BA000000008F8000080808000203F24022D30D3
:101BB0002000000808F8000000000020203F20203E
:101BC00000008080808080808000203F20003F20B7
:101BD000003F8080008080800000203F21000020A6
:101BE0003F200000808080800000001F20202020F7
:101BF0001F00808000808000000080FFA120201155
:101C00000E000000008080808000000E112020A0C7
:101C1000FF80808080008080800020203F21200085
:101C20000100000080808080800000332424242470
:101C30001900008080E0808000000000001F20204C
:101C400000008080000000808000001F2020201005
:101C50003F20808080000080808000010E300806D8
:101C6000010080800080008080800F300C030C30E9
:101C70000F0000808000808080000020312E0E3117
:101C80002000808080000080808080818E70180617
:101C9000010000808080808080000021302C222183
:101CA000300000000000807C020200000000003FC5
:101CB000404000000000FF00000000000000FF00A6
:101CC00000000002027C800000000040403F000055
:101CD00000000006010102020404000000000000F0
:101CE00000007E287A7A7A297E007E28406F40297B
:101CF0007E007E285E6F5E297E007E283D6F3D2936
:021D00007E0063
:00000001FF
